:020000041000EA
:1000000000B5324B212058609868022188439860DF
:10001000D860186158612E4B002199600221596106
:100020000121F02299502B49196001219960352056
:1000300000F044F80222904214D00621196600F024
:1000400034F8196E01211966002018661A6600F04E
:100050002CF8196E196E196E052000F02FF8012189
:100060000842F9D1002199601B49196000215960AB
:100070001A491B48016001219960EB211966A021F2
:10008000196600F012F800219960164914480160C1
:100090000121996001BC002800D000471248134993
:1000A000086003C880F30888084703B5996A0420EC
:1000B0000142FBD001200142F8D103BD02B5186610
:1000C0001866FFF7F2FF186E186E02BD00000240BE
:1000D000000000180000070000035F00212200005C
:1000E000F4000018222000A00001001008ED00E03C
:1000F00000000000000000000000000074B24E7A12
:1001000000200420F7010010C3010010C5010010F9
:10011000C1010010C1010010C1010010C101001097
:10012000C1010010C1010010C1010010C701001081
:10013000C1010010C1010010C9010010CB01001065
:10014000CD010010CD010010CD010010CD01001037
:10015000CD010010CD010010CD010010CD01001027
:10016000CD010010CD010010CD010010CD01001017
:10017000CD010010CD010010CD010010CD01001007
:10018000CD010010CD010010CD010010CD010010F7
:10019000CD010010CD010010CD010010CD010010E7
:1001A000CD010010CD010010CD010010CD010010D7
:1001B000CD010010CD010010CD010010CD010010C7
:1001C00000BE00BE00BE00BE00BE00BEEFF3058054
:1001D000103800BEF2EB887188350310A835031083
:1001E0003802001090A31AE71E481F49086006C88D
:1001F00081F3088810471D480068002801D019487D
:10020000F3E70DA40ECC002902D000F012F8F9E7B4
:100210001749184A002000E001C19142FCD116495B
:100220008847164988471649884700BEFDE701C937
:1002300001C29A42FBD37047A8350310C0000020CA
:10024000A82B002090600310000004200000042070
:100250009060031000100420001004200000000033
:10026000704700000000000008ED00E0000000D032
:10027000A82B002050450020F9090110055100105D
:10028000B9090110F8B5C04606480749091A8B108C
:10029000C90FC91810B5491003D0044B002B00D06A
:1002A000984710BDA82B0020A82B002000000000BC
:1002B000054B10B5002B03D00449054800E000BFF2
:1002C000FFF7E2FF10BDC04600000000EC44002034
:1002D000F0BF021010B50A6803681000984710BDFF
:1002E00010B5041E10D000290ED0013108180121CC
:1002F00009F022FF031E07D0621C12186042104052
:10030000821EC31A138000E0002010BD10B5831EAA
:100310001B88C01A09F014FF10BDC04610B508684C
:1003200009F00EFF10BDC04610B5040018680B6838
:10033000126821689B009200C9180EF005FE00208B
:1003400010BDC046F0B5DE4657464E4645461B68D2
:10035000E0B505689A46AB680F009B46EB685946C6
:10036000386887B01C6A16000CF0AAFF6043594633
:10037000070030680CF0A4FF00224443E3199146C3
:100380009F4239D2524601925A469B46002A33D0A8
:100390004B469C00019B00269C460123BA4698468A
:1003A000644405E0AA68731C0434934219D21E0009
:1003B0006B6828689B5D05945344039343460493FC
:1003C0008368002B1AD0C76805AB04AA03A9B847F5
:1003D0000028E7D007B0F0BCBB46B246A946A0460D
:1003E000F0BD5746EB681B6AFF185F4504D24B46C9
:1003F000B14601339944C9E70020EBE71EF016FC33
:10040000F0B5DE4657464E464546E0B593688BB09C
:100410000400049150698749059329F0B7F9230036
:100420002269002800D08CE09146002A00D180E0AB
:100430000022002490464A469A4602920394802263
:10044000029BD2000093934200D90092009C059B2E
:10045000200058430121800009F06EFE0190002821
:1004600000D1E2E0534642469B6807920894099007
:10047000002B00D1DBE053465046DD6808AA09ABEB
:1004800007A9A847029B002B44D00026049A002508
:100490001268FF279346B146039B9B009B44019B38
:1004A00058590EF059FC0400000A38400EF0FBFBCE
:1004B00061490EF092FB61490EF0A3FB061C200C73
:1004C00038400EF0F0FB5C490EF087FB5C490EF003
:1004D00098FB011C301C0EF07DFB061C20003840F0
:1004E0000EF0E1FB54490EF078FB56490EF089FB03
:1004F000011C301C0EF06EFB5B46585101239C46DC
:10050000009BE14404359945C9D31A009446039BE6
:1005100063440393029B009A01989B1A029309F08B
:100520000FFE8023DB009C4653461B69E044984540
:1005300085D300200BB0F0BCBB46B246A946A0460E
:10054000F0BD9346002AF4D0002292465A4601920A
:100550005246D3469A46059C02928022019BD200C5
:100560009846934200D9904640466043012180005E
:1005700009F0E2FD0090002857D05A4653460792F2
:1005800042469B6808920990002B50D05346504633
:10059000DD6808AA09AB07A9A847019B002B34D046
:1005A0000026049A029B15689B00ED18A146FF27C0
:1005B00034002E00009AA300D0580EF0CDFB0500A9
:1005C000000C38400EF06FFB1B490EF006FB30604C
:1005D000280A38400EF067FB17490EF0FEFA7060EB
:1005E000280038400EF05FFB13490EF0F6FA013494
:1005F000B0600C36A045DDD8029A434694465B00B5
:1006000043449C4463464C4602934246019B0098F7
:100610009B1A019309F094FD8023DB009C4653460E
:100620001B69E3445B4598D883E7074882E71EF0DF
:10063000FDFAC04608C0021000007F43A245163FE5
:100640008716993ED578E93D16FCFFFF012A07D0B1
:10065000022A09D0032A01D0002A03D000207047C3
:100660000160FBE70260F9E70B680360F6E7C0464C
:10067000012A07D0022A09D0032A01D0002A03D078
:10068000002070470160FBE70260F9E70B68036038
:10069000F6E7C046012A07D0022A09D0032A01D072
:1006A000002A03D0002070470160FBE70260F9E7F1
:1006B0000B680360F6E7C046012A07D0022A09D07A
:1006C000032A01D0002A03D0002070470160FBE715
:1006D0000260F9E70B680360F6E7C04682B0F0B548
:1006E00045464E46DE465746E0B585B00F93531E4D
:1006F0008846D90FC918109B039299460F9B050095
:10070000009301231A4049100192884564DA4B4650
:1007100044468B4681460293671C7D006B1EDE00BB
:100720003F014F444E44796870689A460EF0A0FA33
:10073000E4004C44002807D0330006CB06C4D34560
:1007400044DD55462C00E7E73B0006CB06C4AB452D
:10075000F8DC029BBB462F004D469946019B002BBF
:1007600006D103980238C10F09184910B94242D086
:10077000791ECE0F7618761047450BDC15E0230066
:10078000721E03CB03C7D30F9B1837005B10B04515
:100790001ADA1E00F4002C19FF0049466068EF19B0
:1007A0000EF07CFA0028EAD1BB465B46009A1A603C
:1007B0004A465A6005B0F0BCBB46B246A946A046C0
:1007C000F0BC08BC02B01847A346EEE7029B4D46BA
:1007D00057469946B346C1E74346DB009B46019B1B
:1007E0008344002BE1D103990239CA0F52185210E9
:1007F0004245DAD1474678000130C10069185C46AD
:100800000E008B460CCE0CC43E000700B4E7C04679
:10081000F0B545469846130057464E469246DE468A
:10082000013BDA0FE0B5D21857460123050089468F
:1008300087B052101F4091426BDA534604934346EF
:100840000E008146019202970391059300E02E006D
:10085000771C7D00FF006B1E4F449C009A463B684E
:100860004C44984623684146181C9B460EF016FAE5
:10087000002802D0D846270055464B464246B600CF
:10088000F250019BAB42E2DC039B2C004D469946A3
:10089000049BBB469A46029F059B9846002F26D094
:1008A000621ED60FB618AA4676104C4509DC14E035
:1008B000721ED30F9B1825605B103400B14526DAF9
:1008C0001E00B70057443D68A4004146281C54440C
:1008D0000EF0CEF90028EBD1A3465B4642461A60E3
:1008E00007B0F0BCBB46B246A946A046F0BD514693
:1008F0000239CA0F52185210A242D1D15B4664008D
:100900000134A200AA18116893461960C8E7BB46D3
:10091000E3E78B009B468344002FDED15246023A28
:10092000D10F8A1852109145D7D14C46E6E7C04600
:10093000F8B54E46DE46574645468146E0B5884204
:100940003FD00300083399423BD008235B429B46CB
:1009500006008B440FE04B46F21A082A37DD0823C5
:10096000981A4946301828F077FD4B4652465D608C
:100970001A60B34525D0B0464446A368E5689A4658
:100980004B4608365968281C37000EF087F90028B6
:10099000E1D16168281C0EF081F900280CD02300F9
:1009A0002200083303CA03C32700083C6168281CDF
:1009B0000EF074F90028F2D153467D603B60B345D8
:1009C000D9D1F0BCBB46B246A946A046F8BD082A1C
:1009D000CBD143464A46083303CA03C3C5E7C046E2
:1009E000F0B5DE4657464E464546E0B585B08B46E7
:1009F000039001920B1A402B00DCB1E0019A011D1B
:100A00009D1082460291DB10002A00D188E09B00F5
:100A100053441F00029B013A009353465D683B68B4
:100A2000281C994604235B425B441C689846534645
:100A300049461E6801920EF01BF9211C002800D1C6
:100A400095E048460EF014F9002800D0A0E0211CE3
:100A5000281C0EF00DF95346002800D1AAE01C60B6
:100A600043461E605346371C1D685E68311C281CB7
:100A70000EF014F9009BD8461C1D002830D0A1466A
:100A80000434231F1E68281C311C0EF007F90028AF
:100A9000F5D1391C281C44460EF0EAF8083C002821
:100AA00027D0A0462768281C391C043C0EF0E0F82B
:100AB0000028F6D1C14522D24B4680C3009343465D
:100AC0001E6053461D684B465E684346311C043B1E
:100AD000281C1F680EF0E2F8009B1C1D0028CED1D8
:100AE000391C281C994644460EF0C2F8083C0028E0
:100AF000D7D104235B429C46E044C145DCD3019A34
:100B000059464846FFF76CFF4B4652469B1A402B0E
:100B100026DD019A9D10CB46DB10002A00D076E737
:100B2000039E5C1E00E0013CA3002A00210030006F
:100B3000F358FFF76DFE002CF5D15B465A46039D36
:100B4000141F5B1B042B0BDD2A68661B2368002126
:100B500022602800B210FFF75BFE043C042EF3DC99
:100B600005B0F0BCBB46B246A946A046F0BD281C65
:100B70000EF07EF8002805D053461D605E604346A7
:100B80001F6873E74846211C0EF072F8002808D150
:100B900053464A461A603E605E681D6843461F68B9
:100BA00064E753461C6043461E605346371C1D686D
:100BB0005E685BE71D605E6043461F6856E7C0469F
:100BC000F0B5C646884600B51F00856904001600CA
:100BD00009F086FA43461860596018486B689847D0
:100BE000002822D1310000202B699847002819D114
:100BF0003900A07A6B699847002813D10923E3567E
:100C0000012B03D0002080BCB846F0BD207B6B696F
:100C100007999847002805D1E07A6B6906999847AB
:100C20000028EFD003204042EDE7054B01001800FB
:100C300009F05AFA06204042E5E7C046E1020010FA
:100C400014C00210F0B557464E46DE464546E0B5A4
:100C500007009BB0101C18931A007B680E1C002B19
:100C600000D176E1531007930EF07CF8BC4ABD4BDF
:100C70000CF09DFD0400301C0D000EF073F80B000D
:100C80000200290020000CF074FD0CF0E1FE0CF0D5
:100C900091FE041C0EF066F814901591211C201C86
:100CA0000DF0AFFF079B3C009B00199300231790AA
:100CB0000E932368A56813930E9B079E6B43042134
:100CC0003000169309F038FA04210190300009F041
:100CD00033FA04210690300009F02EFA04218346ED
:100CE000300009F029FA04218246300009F024FA84
:100CF00004210700300009F01FFA8046002E00D1C1
:100D00000DE118980CF0CAFD02000B000CF028FD54
:100D1000089009911498159902000B000CF020FD21
:100D20000A900B91FE20179E8005311C0DF04FFF9D
:100D30000EF018F802000B000CF012FD0C900D9153
:100D4000301C0EF00FF8524600231092424699468E
:100D50009846A246029003910F9511971292404631
:100D60000CF09CFD02000B000CF0FAFC00227E4B04
:100D70000CF0F6FC7A4A7B4B0CF019FD089A099BA3
:100D80000CF0F7FC0CF04EFE0CF014FE0DF0EAFF38
:100D90000A9A0B9B0CF00BFD029A039B06000F00B6
:100DA0000CF0DEFC0022704B0CF0DAFC0CF002FEC2
:100DB000041C011CFE2080050DF00FFF4A46019B1C
:100DC0009850201C0DF0CEFF02000B0004000D0017
:100DD0000C980D990CF0CDFC0CF0ECFD4A46069BEE
:100DE00098503200029803993B000CF0B0FC0022AE
:100DF0005D4B0CF0B5FC8022120694460B00634458
:100E0000059304902200049805992B000CF0B1FC86
:100E10000CF0D0FD5B464A46985001239C460333B4
:100E2000E0449C46079BE144434598D1129B0F9DAB
:100E30009846109B5446119F9A46002D6FD01399E7
:100E4000169A89469446930099445B4665448C46BD
:100E5000AD000293199B654408950A944546544693
:100E60009A46D3460026A846A246069BB9599859E9
:100E70000DF0C7FE43469959029B041C98590DF08A
:100E8000C0FE011C201C0DF0A5FE4B4619680DF09C
:100E9000A1FE534698510DF065FF0400B8590D00AE
:100EA0000DF060FF02000B000CF05AFC02000B007A
:100EB000200029000CF04BFC4346040098590D001B
:100EC0000DF050FF02000B00200029000CF048FC40
:100ED000019B040098590D000DF044FF02000B0027
:100EE000200029000CF063FC0CF064FD4B464246E8
:100EF0001860BB59935153469B59BB5104365E450C
:100F0000B3D104239C46089BE14454464546DA4647
:100F10004B45A6D1029B90469B46A2460A9C01984F
:100F200009F00EF9069809F00BF9584609F008F98E
:100F3000504609F005F9380009F002F9404609F079
:100F4000FFF80E9B01331A000E9363689A4200D299
:100F5000AFE61BB0F0BCBB46B246A946A046F0BD0A
:100F6000182D4454FB2109400000F03FF0B55746CE
:100F70004E46DE464546E0B507009BB0101C19936F
:100F80001A007B680E1C002B00D164E153100993FA
:100F90000DF0E8FEB34AB44B0CF009FC0400301C21
:100FA0000D000DF0DFFE0B000200290020000CF008
:100FB000E0FB0CF04DFD0CF0FDFC041C0DF0D2FE2E
:100FC00016901791211C201C0DF01BFE099B109000
:100FD0009B000893002312971193129B099D1A6896
:100FE0009C68119B0421634328001592189309F013
:100FF000A3F804210190280009F09EF80421029032
:10100000280009F099F804210390280009F094F8C9
:1010100004218346280009F08FF804218046280027
:1010200009F08AF88246002D00D1FAE019980CF0F8
:1010300035FC02000B000CF093FB0A900B91169804
:10104000179902000B000CF08BFB0C900D91FE2009
:10105000109D8005291C0DF0BAFD0DF083FE0B00DC
:1010600002000CF07DFB002700260E900F91281C3B
:101070000DF078FE5B46B146C346B8460690079130
:101080001394149348460CF009FC02000B000CF07A
:1010900067FB0022754B0CF063FB724A724B0CF03D
:1010A00086FB0A9A0B9B0CF064FB0CF0BBFC0CF06B
:1010B00081FC0DF057FE0C9A0D9B0CF078FB069A04
:1010C000079B06000F000CF04BFB0022674B0CF057
:1010D00047FB0CF06FFC041C011C10980DF07DFD0B
:1010E0004246019B9850201C0DF03CFE02000B0074
:1010F00004000D000E980F990CF03BFB0CF05AFC0D
:101100004246029B98503200069807993B000CF02B
:101110001EFB0022554B0CF023FB80221206944646
:101120000B006344059304902200049805992B005A
:101130000CF01FFB0CF03EFC4246039B9850012331
:101140009C460333E1449C46099BE0444B4599D1BE
:10115000149B139CD8469B46002C62D01599189A74
:10116000894693009944A3189B00CE180696002444
:1011700043461959029B18590DF043FD534619591E
:10118000039B051C18590DF03CFD011C281C0DF09B
:1011900021FD4B4619680DF01DFD5B461851434675
:1011A000051C18590DF0DEFD02000B000CF0D8FAFA
:1011B0000600281C0F000DF0D5FD02000B003000CA
:1011C00039000CF0CDFA5346060018590F000DF007
:1011D000C9FD02000B00300039000CF0C1FA019B80
:1011E000060018590F000DF0BDFD02000B00300085
:1011F00039000CF0DCFA0CF0DDFB4B46186043467E
:1012000052461B5913515B4642461B591351089BCA
:1012100004349C42ACD104239C46069BE1444B45DC
:10122000A5D1019808F08CFF029808F089FF039877
:1012300008F086FF584608F083FF404608F080FF1C
:10124000504608F07DFF129B119A5B6801321192A3
:101250009A4200D2C1E61BB0F0BCBB46B246A946DA
:10126000A046F0BD182D4454FB2109400000F03F7A
:10127000F0B55746DE464E464546E0B58BB0059282
:101280006A468A46D377049002000B1A802B00DC52
:10129000D6E008320692059ADF101B11002A00D111
:1012A0009EE0013A0592049ADB00D7181300D26839
:1012B000069D93467A685846914608225242524407
:1012C000904652684946161C1A685C6803920DF0F5
:1012D000E5FC002854D04946301C0DF0C9FC00281C
:1012E00000D0B4E05946301C0DF0C2FC002853D1A8
:1012F000049A2E00130003CE03C34346D4605B68F8
:1013000003999B46916053460393049B984643463A
:101310005E68201C311C2F000DF0C0FC083700282F
:1013200009D03D0008373B1F1C68311C201C0DF004
:10133000B5FC0028F5D15846311C0DF099FCA946A2
:10134000039D103D002833D02F00311C6868083DF4
:101350000DF08EFC0028F7D13B0003974B452CD9AC
:101360001A004B4616004D461B6803CE03C513609A
:10137000130054604A46083B5B68D4689B46C6E746
:101380005946301C0DF074FC0028B1D14946301C80
:101390000DF06EFC00285AD0049B46461A0003CE7E
:1013A00003C2424603995460A3461160DC68AAE771
:1013B000039B083B03934B45D2D86B46059ADB7FD2
:1013C00051464846FFF754FF4B46049A9B1A802B20
:1013D00036DD059ADF10CA461B11002A00D060E7EF
:1013E000049E5C1E08AD00E0013C2A00E300F318F7
:1013F00003CB03C26B683A000093210030002B68D6
:10140000FFF76CF9002CEFD153465446049A083C80
:1014100016009B1A082B13DD22002B0003CA03C3FE
:101420002300320003CA03C36B68A71B009300218B
:1014300030002B68FA10FFF751F9083C082FEBDC5D
:101440000BB0F0BCBB46B246A946A046F0BD049A1C
:101450003E00130003CE03C3039B7C603B60434606
:101460005B68D4689B464EE7F0B54646D6464F4685
:101470008368C0B5466804000D009E4207D00A6824
:1014800004C64660E0BCBA46B146A846F0BD036853
:101490001C4A9846F31A9A469B1093422ED0012775
:1014A000002B24D180239B059F4200D3154FBF0002
:1014B000380008F03DFE51462B68814643504645B2
:1014C0001AD050464D464246484402CA02C585429B
:1014D000FBD143460435002B02D0404608F030FED5
:1014E0003E004B464E4423606560A660CAE75F003D
:1014F000BB42D7D9044FDBE70500EAE703481DF0FC
:1015000061FBC046FFFFFF1FFCFFFF7F44C00210CE
:10151000F0B54546DE4657464E46E0B5456885B0CF
:1015200080460121A80008F007FE0190002866D03F
:1015300043465B689D4260D1002D42D00024434663
:101540009968230042464B4310689B00C01803AAC9
:1015500012F0F0F8039A0199A300CA5043465B6861
:1015600001349C42EBD39D4247D100228B469246E8
:1015700042464146966852460968B0008946424351
:1015800091444A46002A28D05A4617680022009201
:10159000002E0ED04D4600242868391C0DF017FB94
:1015A000013401C5A642F7D8009B002B21D1434648
:1015B0005B68012294460332E2449446E3449A4530
:1015C000D6D30024019808F0BBFD200005B0F0BC84
:1015D000BB46B246A946A046F0BD012108F0ACFDCD
:1015E0008146002809D05B461F6801230093002E26
:1015F000D0D1484608F0A4FDD9E7024CE2E7024CFE
:10160000E3E7C04614FCFFFF16FCFFFFF0B5DE4623
:101610004E4645465746E0B5A9B00E9334AB1B780D
:1016200010900A93339B04915B0814930133089341
:101630009C0023AB9B460E0015000021082224A825
:101640000DF07CFC5A46D54B239421931EAB03CA64
:1016500003C3D34B209300232293339BB34200D97F
:10166000C0E1109A1319043B1B68079217930123DA
:101670000D930E9A329B00219B1A9B001A002800A2
:101680009A460DF05BFC049B002B00DC3FE120221E
:10169000339B9BB211935B0801330993089BDB00DA
:1016A0000593339B9B000F93339B203B93431393F2
:1016B000339B6032803B9343109A16939446079A6B
:1016C000231F9146634415930E9B4C449B00994401
:1016D00000230393B34B12940B93B34B0C933399A6
:1016E000039B8C461A000E000499624406928A42BB
:1016F00000D9CE1A089B099A934200D04CE1059874
:1017000008F016FD1AAB0400082200211BA8984619
:101710000DF014FC0B9B0C9A1A935B46DA60424660
:1017200003CA03C35A46A14B14619360002C00D135
:101730000EE101210F9808F0FFFC071E00D10AE11D
:10174000339B9E4200D91E00039AB3009100109A69
:10175000380094461A00614402930DF0F5FB33996A
:10176000029B8A1B92000021F8180DF0E7FB904BBA
:1017700013991A78002920D0169900291DD08D4977
:1017800033988C468C496044084216D08B49339874
:101790008C468B49604408420FD0002A18D00022A2
:1017A000884989481A7008F09FFC802220218748C8
:1017B000339B520108F098FC0AE0002A08D000226E
:1017C000814880491A7008F08FFC814808F08CFC31
:1017D0004346002200930021002333980AF056F973
:1017E000061E00D114E1390022000AF013FA30007D
:1017F00008F0A6FC380008F0A3FC059B9C46A44416
:1018000063460293079B1F0020686368011C98468B
:101810000DF0F7F94146061C40460DF0F2F9011CA7
:10182000301C0DF0D7F90021061C0DF02FFA00280E
:1018300000D1A9E0301C0DF09FFA029B083401C7CB
:10184000A342E1D1279B0024002B00D192E0199301
:101850005B469B68002B00D1DEE05B465846DB68A8
:1018600019A99847002327935B469B68002B03D058
:101870000322594658469847002C00D078E011982A
:101880000DF011FA0DF06EFA02000B000020514924
:101890000BF06FFF06000F00A846079C129D206802
:1018A000011C0DF0AEF90DF05DFA32003B000BF0BB
:1018B0007EFF0CF07FF801C4AC42F0D1329B0E9A4F
:1018C0004546002493420DD94B462F591E59391CC9
:1018D000301C0DF0E3F9002800D13E1C2E510434D9
:1018E000A245F1D10A9B002B2FD00D9B002B02D0DB
:1018F000159B179A1A60149A039B944663440393AA
:1019000000230D93049B039A934200DDE7E6002435
:10191000229B002B08D0209A1A93002A00D17BE04A
:10192000219B1AA91EA8984700232293209B002BD5
:1019300003D01EA9032208009847200029B0F0BC5C
:10194000BB46B246A946A046F0BD069B0393D9E725
:10195000214808F0C9FB279B002B01D01F4C76E7DC
:101960005B469B68002B03D0032259465846984794
:101970001A4CCDE75B469B68002B00D17FE7032222
:101980005946584698477AE7002308C7029B08340F
:10199000A34200D038E755E7114CB9E71D0300100A
:1019A0007106001041A10010D50200104D06001074
:1019B0005022002000FEFFFFFFFDFFFF00F8FFFFA9
:1019C000FFF7FFFF84C002108CC00210B8C00210E5
:1019D00094C002100000F03F70C0021016FCFFFF20
:1019E00014FCFFFF0421089808F0A6FB229B079037
:1019F0002290002B07D01893209B002B0CD0219B0A
:101A000018A91EA8984700230D930023179330E6CA
:101A1000380008F095FB9EE71DF008F9F0B5574631
:101A20004E464546DE46E0B51D00436806000F0001
:101A3000140087B0012B00D0C8E04B68012B00D008
:101A4000C4E09368012B00D0C0E053686868013B94
:101A5000984200D0BAE0AB68012B00D0B6E0B26883
:101A60008B689A4200D0B1E00121800008F064FB4D
:101A70000190002800D19EE06068012101388000BB
:101A800008F05AFB8246002800D196E06268BB68E5
:101A90000592013A90460293002B53D032683B687E
:101AA000049200229146059A0393012A00D186E010
:101AB00000229E5813002A00B346454690462768E8
:101AC00000932B0000245D4600269B46B600B859C3
:101AD000291C0DF0D3F8002806D0BB195868291C22
:101AE0000DF0DCF8002812D10134A4B226005C45C8
:101AF000ECD34B4601339BB29946029B5D46994518
:101B00001DD24B46039A9B00D2589346D8E7019AC0
:101B1000009B9419049A2068D1580DF05BF8FE21BF
:101B200020605644306889050DF054F84B46013367
:101B30009BB29946029B5D4630609945E1D343468E
:101B4000A8461D00059B012B1DD02B68002499463B
:101B5000002300259B464F465346AD005E590021A9
:101B60007B19301C99460DF07BF800281AD1019B97
:101B7000311C58590DF031F84B460134A4B2250000
:101B800018604445E8D3504608F0DAFA002401987A
:101B900008F0D6FA200007B0F0BCBB46B246A94612
:101BA000A046F0BD4B465A460134A4B225001A6047
:101BB0004445D1D3E7E7064CECE7054CE7E74B4655
:101BC0000133029A9BB29342FAD3DCE7014CE1E77E
:101BD00016FCFFFF14FCFFFFF0B54546DE465746F6
:101BE0004E46E0B58DB0079316AB14001A884368D3
:101BF00088460492012B00D053E14B68012B00D0A2
:101C00004FE152088B68561C92460392B34200D0B3
:101C100047E16368012B00D043E1A3689E4200D0F6
:101C20003FE103680693002B00D1C2E00B68002B54
:101C300000D1BEE02368002B00D1BAE08368049A8B
:101C40000593934200D2A9E0100001218000914643
:101C5000059208F071FA021E089000D1A9E04946E9
:101C60000023002908D0FE214846890501339BB294
:101C700002C29842FAD1814604980DF019F8051C69
:101C8000FE20079980050CF0A8FF011C281C0CF011
:101C9000B8FF011CFE2080050CF09FFF2568002482
:101CA0005746B246061C20000CF0FDFF311C0CF01C
:101CB000A8FF2300013401C5A4B29F42F3D1012142
:101CC00004209B4608F038FA5646041E099000D1BD
:101CD000E5E0059D069829000BAA11F02BFD0B9F4E
:101CE0002760002D0CD0069A059B944614009D0099
:101CF00065442068391C0CF06AFF01C4AC42F8D17D
:101D00000121F00008F018FA039B040001339E4201
:101D100000D0C2E0049E0121B00008F00DFA051EBB
:101D20004CD0059B9E4200D91E00B3009A461A0073
:101D3000069928000DF008F95346049F0021BA1BAC
:101D40009200E8180DF0FAF83B00574A5748203B3C
:101D50001178034244D05648603B034240D0554E70
:101D60003B00B44654486344034239D03B003E0034
:101D7000524F5348BC466344034231D000293AD005
:101D8000002350495048137008F0AEF98022330008
:101D900020214E48520108F0A7F92CE018009AB211
:101DA00001218000914608F0C7F9021E089000D07A
:101DB00055E7474D0CE0280008F0C2F9444D2000DB
:101DC00008F0BEF9099808F0BBF9089808F0B8F9CE
:101DD00028000DB0F0BCBB46B246A946A046F0BDF7
:101DE000002908D0002338483649137008F07CF9E0
:101DF000384808F079F90BAB00930022002300214A
:101E0000049809F043FE061ED5D048460CF050FF5A
:101E100007990CF0F6FE011CFE2080050CF0DDFE9B
:101E2000290022008146300009F0F4FE300008F05D
:101E300087F9280008F084F943461B682500984676
:101E4000002300269A46039409E0011C0CF0C2FE10
:101E50004346286001C398460136B6B2083553465A
:101E600028686C68011C6B600CF0CBFE211C071C01
:101E7000201C0CF0C6FE011C381C0CF0ABFE4946C1
:101E80000CF0BFFE2860B345DFD14346039C1860C9
:101E9000200008F055F9002594E70F4D8FE70C4D11
:101EA00093E70E4D94E7C04650220020DFFF00006C
:101EB0007FFF000000FEFFFFFFFD000000F8FFFFB6
:101EC000FFF7000084C002108CC00210B8C00210DE
:101ED00016FCFFFF94C0021011FCFFFF14FCFFFF73
:101EE000F0B545465746DE464E46E0B5B3B01C0059
:101EF0003CAB0F9204CB4D681F783EAB1B889046DD
:101F000003933FAB1A784368119007910992AB4253
:101F100001D000F08BFC419B52005B68561C91463F
:101F200081683200002B00D01FE1914201D000F007
:101F30007DFC419B9B68012B01D000F077FC07984A
:101F4000FFF7E6FA8246002800D006E1012C01D115
:101F500000F042FC022C01D100F055FCAB00012145
:101F60001800984608F0E8F81090002801D100F019
:101F700047FC079B5B689D4201D000F099FC002460
:101F80002DAB002D14D0B3461E00109F079D2300DB
:101F9000A96828684B439B003200C01811F0EAFB87
:101FA0002D9AA300FA506B6801349C42EFD35E4631
:101FB0004B4640460121584308F0BEF8071E01D1A8
:101FC00000F031FC079B5B68002B00D1BFE0039958
:101FD000DA4A8B0016930B00203B134018930B003A
:101FE000D74A803B1340099A1A93D30012930123D6
:101FF000002A01D000F0EDFB9B0015930023059310
:10200000039B17975B085A1C1B93CE4B0B921393A1
:1020100053460E921D93079A059B96681268B0006E
:102020004343D3180C93002B00D1A6E32193002344
:102030001EAA137601332293002323960D930E9C40
:102040000121A30018009B4608F076F806900028AE
:1020500001D100F0F7FB0B9B9C4201D000F0E9FBA3
:10206000E700380008F064F829AB9A46040008221B
:1020700000212AA80CF062FF139B2DAA2993B24BD2
:10208000554630931300049203CD03C3AF4B3194F4
:102090002F93002C00D15EE30121169808F04CF834
:1020A0008046002800D151E3039B9E4200D91E00C8
:1020B000B30099461A000C9940460CF045FF48467B
:1020C000039B00219A1B920040440CF037FFA04B69
:1020D00018991A7800294BD01A99002948D0039EE4
:1020E0009C4D3100AC469C486144014240D03100D7
:1020F00035009A4E9A48B4466144014238D0002ACD
:1021000041D00022974998481A7007F0EDFF8022CD
:102110002B0020219548520107F0E6FF33E005002F
:102120002000179FAA4608F00BF8089808F008F856
:10213000484608F005F80A9808F002F8069807F0F3
:10214000FFFF0D9B002B02D00C9807F0F9FF380021
:1021500007F0F6FF109807F0F3FF504633B0F0BCDD
:10216000BB46B246A946A046F0BD013B9A19DCE643
:10217000002A08D000227C487A491A7007F0B4FF80
:102180007B4807F0B1FF5346002200930021002353
:10219000039809F07BFC061E00D1D4E222004146E0
:1021A00009F038FD300007F0CBFF404607F0C8FFCC
:1021B000069BB94600251F00A14420686368011CE6
:1021C00098460CF01EFD4146061C40460CF019FDD9
:1021D000011C301C0CF0FEFC0021061C0CF056FD0E
:1021E000002800D1EFE2301C0CF0C6FD083401C716
:1021F0004C45E2D1319B0024002B00D1D8E2299339
:10220000049B9B68002B00D158E3049D5146EB686A
:102210002800984700233193AB682900002B02D097
:10222000032228009847002C00D002E303980CF00A
:102230003AFD011C8020C0050CF0CFFCFE21890571
:10224000041C0CF00DFD00280ED1524601230E99FE
:102250000698518050601380049A5180506013801A
:102260005046211C11F016FA0121129807F064FF64
:102270000A90002800D1EDE2099B002B00D1C9E1B2
:102280000121584607F058FF0890002800D198E235
:10229000FE200F9980050CF0A0FC011C0CF09AFCAC
:1022A000011CFE2080050CF098FC039B051C5B10B4
:1022B000994600D13CE2012B00D19DE25E1E300028
:1022C0000CF0F1FC011C281C0CF087FC00243700EA
:1022D000A846051C20000CF0E6FC291C0CF091FC23
:1022E00000210CF077FC089BA60001349851A7420E
:1022F000F0D11A0045461F4B4B449B009D50099B53
:1023000001219C469C006444E00007F015FF1490F6
:10231000002800D10CE2069B1A6891461B9A012AFC
:1023200000D1AAE21F1D002319935B4661004E46AF
:10233000012493461C911E934AE0C046DFFF000033
:102340007FFF000041A10010D50200104D060010D3
:102350005022002000FEFFFFFFFD000000F8FFFFFD
:10236000FFF7000084C002108CC00210B8C0021039
:1023700094C00210FFFFFF3F7B68281C191C984681
:102380000CF08CFC00282CD0311C281C0CF01FFCFD
:102390004146061C281C0CF01AFC011C301C0CF0D9
:1023A00019FC00210CF07AFC00281AD048460CF0E9
:1023B0007AFC199E149BB50058511C9A731C9BB251
:1023C00019939A4200D15EE23E680437A3450CD0CF
:1023D0003D68311C281CA14601340CF05FFC00282C
:1023E000CAD12E1C0437A345F2D11E9B9B46199BD4
:1023F000002B00D141E2002600230024994600274B
:10240000B0460BE0089B9E59444519D00137199BF3
:10241000FFB22660656008349F424ADA149ABB0016
:1024200098580CF099FC069B86009D594098291CF1
:102430000CF034FC0028E5D000252E1C4445E5D1E5
:102440004B46E31A9846DA10D34B9A4200D132E257
:102450000123002A00D0C7E180225205934200D315
:10246000CD4BDB0018001C9307F062FE8446E0446D
:10247000424603001E90166055604C4500D109E2AB
:1024800040464A4630CA30C39842FBD144464B4688
:102490000834002B02D0484607F052FE1E9A1C9BBF
:1024A0009446634498460137199BFFB291469F4278
:1024B000B4DB4B46E31A4646DF1098464C454CD0F9
:1024C000002F00D1E8E138000AF0CCFE1F22121ADA
:1024D0000023210048465200FEF7CAFE4346802BE7
:1024E00000DCA8E14D46803529004846FEF720FA79
:1024F00078234B44984608235B429C46A444634699
:102500001993AC4229D04B46B14646461C931E94C3
:102510001F973400E568A3686168281C9846083650
:102520000CF0BCFB002800D18AE123002200083314
:1025300003CA03C32700083C6168281C0CF0AEFBEB
:102540000028F2D143463B60199B7D609E42E0D15A
:102550001C9B4E4699461E9C1F9F099BBB4240D91F
:102560000023984607E0434623606360099B0137D8
:102570000834BB4235D9B442F5D14B46E61A864BF6
:10258000F2109A4200D196E10123002A00D042E1E4
:1025900080225205934200D37F4BDB001800199331
:1025A00007F0C6FD4246831905001A605A60A1452E
:1025B00000D16DE102004B46844621CB21C29C42F2
:1025C000FBD16546AC194B460834002B02D0484677
:1025D00007F0B6FD199B0137EE18099BA946BB42CF
:1025E000C9D84A4600210A9B099C1068013118602D
:1025F00050680832586008338C42F6D84B46002B9E
:1026000002D0484607F09CFD149807F099FD089801
:1026100007F096FD0121584607F08EFD01270B9C1F
:1026200025AB8146984625901F735F609C6000280B
:1026300000D117E10121584607F07EFD524629904E
:102640000890177357609460002800D106E1039B3F
:102650000F9D009341462B1C21A8FFF7BDFA0028CF
:1026600000D007E1419A01215668721E93469000FE
:1026700007F062FD5946049A2D90041E17735160AD
:10268000976000D1F2E0130051464046419A009510
:10269000FFF7C4F9002800D041E5119A0599936825
:1026A00017684B43109A9B00FF188B00D358099D65
:1026B0003B60002D0BD000210A9A3B1D10680131B0
:1026C000186050680832586008338D42F6D85B466F
:1026D000002B0FD0314B00259C46159B66449C4631
:1026E000B600674460592E490CF077FA78510435EA
:1026F000B542F7D1200007F023FD089807F020FD30
:10270000484607F01DFD0A9807F01AFD069807F0E5
:1027100017FD0D9B002B12D1079B059A5B680132B8
:102720000592934200D976E41D9B179F9A460EE5C9
:102730000898179F07F004FD1A4B9A46FBE40C9883
:1027400007F0FEFCE8E7404607F0FAFC319B002B5F
:1027500007D0154C53E5154807F0C6FC319B002BFC
:10276000F7D1049B179F9C68002C03D0032219000B
:102770001800A0470B4B9A46E0E4012107F0DCFC6F
:1027800001231EA90C9021900B76229323960028FA
:102790005CD00D9353E4C046FFFFFF0FFFFFFF3FE8
:1027A0000000204114FCFFFF16FCFFFF70C0021068
:1027B00004998B68002B00D138E503220800984764
:1027C00034E5179FB8E7083420C74C4500D0F4E43F
:1027D00010E53300FFF710FC3B0042460F990798C5
:1027E000FEF7C4FBFFF7BAFB53009A4200D833E66A
:1027F000334B18001C9337E60023089A13607EE5DC
:10280000304B9A46A9E43B0042460F990798FEF7E1
:1028100019FAFFF7A3FB53009A4200D8B8E6284BF9
:1028200018001993BCE6274B9A4693E4264B9A4628
:1028300093E4179F9EE721004846FEF779F88CE65F
:1028400037007FE61F4B179F9A467AE41D4B179F70
:102850009A467CE41B4B179F9A466FE4194B179FCF
:102860009A4665E4174B179F9A4664E4154B179FE9
:102870009A465AE48246179F57E400230026002414
:10288000994600276CE61E9B9B461C9B1993B2E55C
:10289000040098E60400FAE50222210048460023DD
:1028A0005242FEF7E5FC21004846FEF741F857E6A4
:1028B000054B9A464EE405481CF084F91CF0B6F925
:1028C000F8FFFF7F16FCFFFF14FCFFFF44C002105F
:1028D000F0B5DE46574645464E46E0B59FB09B46AE
:1028E00028AB1B788A46984629AB1B78169009922C
:1028F000002B01D000F0D0FE099DE2496C69200058
:1029000026F044FF002800D001E1EB69002B01D044
:1029100000F036FF4346002B01D000F03CFFFC21C5
:10292000584689050CF06DF9099D041C686A0CF085
:10293000BAF9AE69051C311C201C0CF099F9211C58
:10294000002801D100F019FF281C0CF05AF9594653
:102950000CF043F90CF006FACB4B00220AF000FF12
:102960000AF0D8FF030001330E93012319900D9351
:102970005346169A1C685668002E00D164E1199BD4
:102980000D999B0017930E9B05945B1A9B00139364
:102990008B00159313689268089393469500002B5B
:1029A00001D100F08EFF06930023109311931CAB0E
:1029B0000A93059B002B00D05DE10121042007F064
:1029C000BBFB012318945C460C900F9321000A9ADC
:1029D000089810F0CFFE1C9B0C9A00211360059BF9
:1029E0001E68301C0CF03CF9002800D0D0E0311CEF
:1029F000301C0CF006F9311C0CF003F9011C824666
:102A0000301C0CF0FEF80490002C00D1C7E0069BAF
:102A1000002799469846A346A9443D1C434640CB0F
:102A2000311C301C98460CF0ECF8311C0CF0E9F825
:102A3000011C041C281C0CF0CDF8211C051C301CAA
:102A40000CF0DFF8011C381C0CF0C4F8071CC14561
:102A5000E4D15C4620000CF026F9011C061C281C61
:102A60000CF0BBF851460CF0B8F8059B311C5860CF
:102A7000381C1D000CF0B1F804990CF0AEF8834935
:102A80000CF0A5F8059B099A9860536A92880C355A
:102A9000042A00D10EE13522099906988A5C019337
:102AA0000E9B029200932A0021000D9BFEF7AEFDC3
:102AB000002801D000F07FFD3423099AD35C002B5D
:102AC00070D1179BEE180F9B0596002B00D0A9E044
:102AD000089B002B03D0119B002B00D0A6E0169979
:102AE000109A4B6801321092934200D8A9E013006B
:102AF0008C680A68A5006B43D3180693002B00D19D
:102B0000AAE0089300230C9611930F935EE7200030
:102B10005F4926F03BFE002801D000F01EFEEB6965
:102B2000002B01D000F0B1FE4346002B01D000F095
:102B3000B7FEFC21099B890558469E695D6A0CF029
:102B400060F8041C011C301C0CF0A8F8002800D10F
:102B5000341C28000CF0A7F8011C201C0CF051F8C4
:102B600059460CF03AF80CF0FDF8474B00220AF0F9
:102B7000EEFD0AF0CFFE431C0D93013001D101237D
:102B80000D930D9A6D086B1C0E939B1A1993EFE62B
:102B9000404B0493404B9A46002C00D037E7002767
:102BA0003D1C57E7199B002B8BD02C00179B3B4FEC
:102BB000EE18002120680CF053F8002800D02760A0
:102BC0000434A642F5D10A9F286839004000400825
:102BD00029F07AF93249041C0CF013F831490BF052
:102BE000F6FF011C201C0CF00CF82F490BF0F2FF33
:102BF000011C201C0CF005F82C490BF0E8FF041C0C
:102C00001C980CF055F8211C0BF0E4FF28490BF040
:102C1000F8FF01C5AE42D7D10F9B0A970596002B4E
:102C200000D155E70C9807F08BFA51E7089807F0A8
:102C300087FA1699109A4B6801321092934200D984
:102C400055E7189C361BB61030001FB0F0BCBB46D1
:102C5000B246A946A046F0BDA346189C0121280013
:102C600007F06AFA0023069301331193059B08903D
:102C7000002B00D1A1E60C93002318940F935C461F
:102C8000A4E6C04618C102100000E03F000040402A
:102C90001CC10210C21601006142A20DFFE6DB2E2C
:102CA000A8A19D3FF5CA8340FBB3C040E0924840D5
:102CB0009B209A3EDA0FD218521001321100129264
:102CC00080229205914201D300F02DFE002901D10E
:102CD00000F063FC8B001F0018000D00149307F038
:102CE00027FA3A000021060004900CF027F935235A
:102CF00009993200CB5C069802934B6A210001933C
:102D000000950023FEF782FC002801D000F002FEAF
:102D1000BC10A308984621000323194089460430BB
:102D20000121129407F008FA21000A9A0B90300052
:102D300010F000FD20000BF0B6FF0690042F00D825
:102D4000E7E24346002B00D1FEE345460020049C09
:102D500021680BF03FFF61680BF03CFFA1680BF0AE
:102D600039FF013DE1680BF035FF1034002DEFD144
:102D70004346013B1C0107934B46049D10352C191B
:102D8000002B00D1B4E221680BF024FF4B46012B4D
:102D900000D1ADE261680BF01DFF4B46022B00D164
:102DA000A6E2083421680BF015FF06990BF015FF19
:102DB0004346013B07934346049D061C1035002BF8
:102DC00000D1DBE3AA4600274546049C2068311C5D
:102DD0000BF0FDFE011C0BF014FF391C0BF0FAFE8A
:102DE000311C071C60680BF0F2FE011C0BF009FFA0
:102DF000391C0BF0EFFE311C071CA0680BF0E7FE3E
:102E0000011C0BF0FEFE391C0BF0E4FE311C071C0C
:102E1000E0680BF0DCFE011C0BF0F3FE391C0BF03C
:102E2000D9FE013D071C1034002DCFD1079B1B019B
:102E30009A444B46002B00D1F3E25346311C1868EC
:102E40000BF0C5FE011C0BF0DCFE391C0BF0C2FEC2
:102E50004B46041C012B00D1B2E253461D1D311C10
:102E600028680BF0B4FE011C0BF0CBFE211C0BF00C
:102E7000B1FE4B46041C022B00D10DE35346311C1E
:102E800098680BF0A4FE011C0BF0BBFE211C0BF09C
:102E9000A1FE06990BF0A1FE041C011C0BF0B1FE73
:102EA000211C0BF0AEFE434682461C9E002B00D137
:102EB000E0E3002347469B46049C2068311C0BF04E
:102EC00086FE051C011C0BF09CFE291C0BF099FED4
:102ED00059460BF07FFE311C834660680BF077FE8D
:102EE000051C011C0BF08DFE291C0BF08AFE5946B7
:102EF0000BF070FE311C8346A0680BF068FE051CC9
:102F0000011C0BF07EFE291C0BF07BFE59460BF0DA
:102F100061FE311C8346E0680BF059FE051C011C64
:102F20000BF06FFE291C0BF06CFE59460BF052FEA5
:102F3000013F83461034002FBFD14B46002B00D1F8
:102F400002E243461D01049B311C9C4665442868EF
:102F50000BF03DFE041C011C0BF053FE211C0BF07A
:102F600050FE59460BF036FE4B46041C012B23D075
:102F70002F1D3868311C0BF02AFE071C011C0BF0BA
:102F800040FE391C0BF03DFE011C201C0BF022FE04
:102F90004B46041C022B0FD0A868311C0BF017FE07
:102FA000051C011C0BF02DFE291C0BF02AFE011C38
:102FB000201C0BF00FFE041C201C06990BF00DFECC
:102FC000041C002150460BF061FE002800D188E16E
:102FD00050460BF0D1FE0021051C0BF041FE0028ED
:102FE00000D07EE1291C201C0BF0F7FD0B9B0A9AF8
:102FF0001860059B1299D860049810F09BFB149BF5
:10300000042B00D879E14346002B00D174E24546F9
:103010000020049C21680BF0DDFD61680BF0DAFDF7
:10302000A1680BF0D7FD013DE1680BF0D3FD103432
:10303000002DEFD14346013B1C0107934B46049DF5
:1030400010352C19002B00D14DE121680BF0C2FD89
:103050004B46012B00D146E161680BF0BBFD4B46AE
:10306000022B00D13FE1083421680BF0B3FD069933
:103070000BF0B3FD4346013B07934346049D061CFA
:103080001035002B00D151E247460023049CAB468B
:103090003D001F1C2068311C0BF099FD011C0BF03A
:1030A000B0FD391C0BF096FD311C071C60680BF05D
:1030B0008EFD011C0BF0A5FD391C0BF08BFD311CA6
:1030C000071CA0680BF083FD011C0BF09AFD391C56
:1030D0000BF080FD311C071CE0680BF078FD011C33
:1030E0000BF08FFD391C0BF075FD013D071C1034F2
:1030F000002DCFD1079B5D461F014B468246EF193D
:10310000002B00D180E1311C38680BF060FD011C00
:103110000BF077FD51460BF05DFD4B46041C012B77
:1031200000D12AE13D1D311C28680BF050FD011C27
:103130000BF067FD211C0BF04DFD4B46041C022BD0
:1031400000D17BE1311CB8680BF041FD011C0BF094
:1031500058FD211C0BF03EFD06990BF03EFD011CB5
:103160000BF04FFD049B82469B460023079343468A
:103170001C9D002B00D16CE25C464746002620686F
:10318000291C0BF024FD011C0BF03BFD011C0BF076
:1031900038FD311C0BF01EFD291C061C60680BF06D
:1031A00016FD011C0BF02DFD011C0BF02AFD311C3E
:1031B0000BF010FD291C061CA0680BF008FD011C7B
:1031C0000BF01FFD011C0BF01CFD311C0BF002FD70
:1031D000291C061CE0680BF0FAFC011C0BF011FD29
:1031E000011C0BF00EFD311C0BF0F4FC013F061C22
:1031F0001034002FC3D14B46002B00D1A9E0434629
:103200001F015F44291C38680BF0E1FC011C0BF026
:10321000F8FC011C0BF0F5FC311C0BF0DBFC4B4601
:10322000041C012B21D03E1D291C30680BF0CFFC63
:10323000011C0BF0E6FC011C0BF0E3FC011C201C44
:103240000BF0C8FC4B46041C022B0ED0291CB8689E
:103250000BF0BDFC011C0BF0D4FC011C0BF0D1FCED
:10326000011C201C0BF0B6FC041C201C06990BF062
:10327000B4FC041C002150460BF0F2FC00282ED1B7
:103280005146201C0BF0A9FCE9490BF0A0FC0B9B5C
:1032900004991860059B0D9A1D001861159B0E98E6
:1032A0009C46143500236144824205D2CA58EA5034
:1032B000139A04339A42F9D10B9806F041FF5B460A
:1032C000002B03D0079B002B00D0B5E10498002809
:1032D00001D1FFF7F1FB06F033FFFFF7EDFBD54817
:1032E000D5E7002082E606990BF077FC061CCBE6BA
:1032F00006990BF072FC061C64E5049B9B460023B8
:10330000079343461C9D002B00D199E100239A4668
:1033100032E74B46002B00D184E1049B1C991868CE
:103320000BF055FC041C011C0BF06BFC211C0BF07A
:1033300068FC00210BF04EFC0123994600239846BF
:103340000023041C9A4637E606990BF046FC041C41
:1033500037E606990BF041FC041C8BE706990BF04D
:103360003CFC049B011C18680BF031FC011C0BF0A9
:1033700048FC00210BF02EFC041C0699201C0BF0CD
:103380002CFC011C0BF03DFC434682461C9D002B8F
:1033900000D1C1E1049B9B4601239946002307937A
:1033A000EAE606990BF019FC049B011C18680BF067
:1033B0000EFC011C0BF025FC00210BF00BFC041C87
:1033C0000699201C0BF009FC041C011C0BF019FCD5
:1033D000211C0BF016FC01239946434682461C9E95
:1033E000002B00D065E5049B311C18680BF0EFFB47
:1033F000041C011C0BF005FC211C0BF002FC00213D
:103400000BF0E8FB041CD7E506990BF0E6FB011C6A
:103410000BF0F7FB049B82469B4600231C9D079301
:10342000AAE606990BF0D9FB041C011C0BF0E9FB82
:10343000211C0BF0E6FB1C9E82463AE506990BF038
:10344000CCFB011C0BF0DDFB049B82469B4600235A
:10345000079343461C9D002B00D08DE65E46291C39
:1034600030680BF0B4FB011C0BF0CBFB011C0BF024
:10347000C8FB00210BF0AEFB291C041C70680BF08C
:10348000A6FB011C0BF0BDFB011C0BF0BAFB211CC1
:103490000BF0A0FB041CE8E606990BF09EFB041C55
:1034A000011C0BF0AEFB211C0BF0ABFB434682462C
:1034B0001C9E002B00D0FCE4049F311C38680BF0EC
:1034C00086FB041C011C0BF09CFB211C0BF099FBE0
:1034D00000210BF07FFB311C051C78680BF077FB9B
:1034E000041C011C0BF08DFB211C0BF08AFB291C1A
:1034F0000BF070FB041C5FE54B46002B00D11EE176
:10350000049B002118680BF065FB4B46012B00D192
:1035100024E7049C61680BF05DFB4B460834022BEA
:1035200000D0A1E506990BF058FB061C049F311C46
:103530003D0001CD0BF04BFB011C0BF062FB0021A9
:103540000BF048FB041CEEE54B46002B00D1D4E009
:10355000049B002118680BF03DFB4B46012B00D16A
:103560001FE7049C61680BF035FB4B460834022BC7
:1035700000D017E406990BF030FB061C049F311CA9
:103580003D0001CD0BF023FB011C0BF03AFB0021A9
:103590000BF020FBBA46041C61E435220998825CDA
:1035A0000193029200910023002221000698FEF769
:1035B0002DF8002813D006000F9B002B00D085E1CA
:1035C000089B002B01D1FFF73FFB119B002B01D182
:1035D000FFF73AFB089806F0B3FDFFF735FB012132
:1035E000002006F0A9FD01218346042006F0A4FD79
:1035F00000210B900A9A584610F09CF8002304937F
:10360000013307930023069300230B9A5846136057
:10361000059A1299D3600A9A10F08CF80023984604
:1036200099466EE6049B9B4600230793ECE7C04651
:1036300000004040000040C0584606F081FD45E6CD
:103640004B46002B00D14AE600235F469A461E1CDB
:10365000D8E5049F291C3E0001CE0BF0B8FA011CEE
:103660000BF0CFFA011C0BF0CCFA00210BF0B2FAF0
:10367000041CD9E5049D311C2F0001CF0BF0A7FAE3
:10368000041C011C0BF0BDFA211C0BF0BAFA00213E
:103690000BF0A0FA041C6CE444688668012C02D08C
:1036A000012E00D081E0FE21099B169FDD687E601F
:1036B000BC608905281C0BF0D3FA002801D0FFF765
:1036C0001BF98022230052023343934200D327E1A7
:1036D0001AA8A4B23B68B6B24480240406801CAA8F
:1036E00026431C96291C536043600FF0D3FF061E2F
:1036F00001D1FFF701F9FFF7A7FA011C00200BF039
:103700006CFA041C011C0BF07CFA211C0BF079FAFA
:1037100000238246129354E4049E291C30680BF067
:1037200056FA011C0BF06DFA011C0BF06AFA00212D
:103730000BF050FA0023B346041C079395E5069955
:1037400000200BF04AFA011C041C0BF05AFA049BEF
:1037500082469B46002307938CE54346002B00D00E
:10376000A8E0099B5A6AD30F9B185B105A1C199347
:1037700001230E920D93FFF7FBF8311CFFF7E4F8DD
:10378000DBB25946AA691698FDF7F0FB4346002BB9
:1037900001D1FFF7C4F81698FDF7BAFE002801D151
:1037A000FFF7BDF80600FFF74FFA330063435A1ED8
:1037B00000270692002B00D09CE0169B31001A686F
:1037C0001E000492012243461F259146A046100088
:1037D00005920793049B8200D4583300261C44466C
:1037E000B8461F000AE04E468E4019683143196002
:1037F000059B83426ED0B9687C68161C09F060FD99
:10380000049A614394460818830063441A681E6052
:103810002B00C4172340E60E1B185B1181199B0077
:1038200029404344891BDED54E4620318E4031006D
:10383000043B1E6831431960059B8342DBD13E0087
:103840000699474609E04C4694401B68234216D02F
:10385000431C814242D91800DC172B0023401B185F
:10386000E40E5B1102199B002A40FB18121BEAD5DB
:103870004C4620329440043B1B682342E8D17368D5
:1038800006919846B1680590A4E7DBB25946AA694B
:103890001698FDF7D7F94346002B01D1FFF749F9F8
:1038A0001698FDF735FE002801D1FFF742F9060012
:1038B000FFF7CAF91698FDF72BFE002800D150E754
:1038C00070E710931CAB0A93FFF7C8F90C9806F049
:1038D00037FC75E63E0006994746BEE7079B1696FD
:1038E0009846002F02D0380006F02AFC169B5C6830
:1038F0009E68D8E61F335C09A400200006F018FC7F
:10390000071E03D0220000210BF018FB169B9E68B7
:103910005C6852E7049B0600180006F011FC4BE6B9
:10392000024EFFF791F902481BF04CF90CFCFFFF27
:1039300024C10210F0B557464546DE464E46E0B576
:1039400083B082460D000193002B00D186E0002356
:1039500000269946009353461C6829786368A2683C
:103960005A43009B9C4694446346009303290FD01E
:1039700009294DD001292ED03D4806F0B5FB0D2078
:10398000404203B0F0BCBB46B246A946A046F0BDDB
:103990000027002A0CD12CE0FF2800DDFF205B4629
:1039A000424698546268A36801375343BB4220D90A
:1039B0002268BB009858E9680BF00FF90BF024FA65
:1039C0006B68B0469B460BF095F92B690136C01821
:1039D000E2D50020E3E7002A0BD06868B300C018E6
:1039E000002327689400F958C1500433A342FAD148
:1039F000B61801239C46019BE1444B45ABD1A96914
:103A0000009A8B08934201D091422BD10020B8E755
:103A10000027002A0BD1ECE7802040425B4642465B
:103A200098546268A36801375343BB42E1D92268C6
:103A3000BB009858E9680BF0D0F80BF0E5F96B681B
:103A4000B0469B460BF056F92B690136C0180300AF
:103A50008033E1DB7F28E1DD7F20DFE78969002219
:103A60008B08D3D0034806F03FFB1820404288E77C
:103A700058C102107CC10210F0B5C6464D680B005B
:103A8000896804004D43017800B5032927D009292E
:103A90000DD001293AD182699108A9423CD1186818
:103AA00061680BF051FA002080BCB846F0BD876910
:103AB000AF423DD1002FF6D00269456890461E689E
:103AC0007F190020434628560135C01A0BF0F0F844
:103AD000E1680BF096F801C6BD42F2D1E3E78769D1
:103AE000AF4225D1002FDED00269456890461E689E
:103AF0007F19434628780135C01A0BF0D9F8E168E0
:103B00000BF07FF801C6AF42F3D1CCE70B4806F0CB
:103B1000EBFA0E204042C7E70321D317194089185A
:103B200007482A00891006F0DFFA18204042BBE758
:103B30002A003900024806F0D7FAF6E710C2021050
:103B4000CCC10210F0B557464E46DE464546E0B5BC
:103B500083B00EAB1E788B7804001700032B30D097
:103B6000052B26D050230D9AD35C002B21D1723324
:103B70009946C35A7D689B463B78092B2ED05B46FD
:103B8000002B16D0436F002E00D052E110002A689F
:103B90001968C2605A468160012A0AD06A68596869
:103BA00042615A460161022A03D0AA689B68C26139
:103BB0008361002003B0F0BCBB46B246A946A046D4
:103BC000F0BD09224B7A8A560E2B00D92CE1BD4854
:103BD0009300C3589F4615204042EBE738690BF02D
:103BE00067F85B460190002BE3D0FB689846636F53
:103BF0009A46002E00D08DE0041C002028560BF0C1
:103C000057F8211C0AF0E3FF41460AF0FAFF534639
:103C10000D9A1B68D06093605B46012BC9D00120D0
:103C200028560BF045F8211C0AF0D1FF41460AF056
:103C3000E8FF53460D9A5B68506113615B46022BA7
:103C4000B7D0022028560BF033F8211C0AF0BFFF32
:103C500041460AF0D6FF53460D9A9B68D0619361A6
:103C6000A7E73978092903D8974BCB40DB07B2D4B3
:103C7000964806F039FA0A2040429BE7397809292C
:103C800003D8914BCB40DB07A5D4914806F02CFA22
:103C9000F1E73978092903D88B4BCB40DB079AD45D
:103CA0008C4806F021FAE6E78B4806F01DFAE2E7B9
:103CB0000B7D002B8FD0894806F016FADBE73978A8
:103CC000092903D8804BCB40DB0784D4844806F015
:103CD0000BFAD0E73978092904D87B4BCB40DB07B6
:103CE00000D578E77F4806F0FFF9C4E70B7D002B8D
:103CF00000D170E77C4806F0F7F9BCE7397809296C
:103D000004D8714BCB40DB0700D564E7774806F059
:103D1000EBF9B0E7002028560AF0CAFF01990AF033
:103D200056FF41460AF06DFF5346714F1968061C55
:103D3000380006F0D9F9301C06F0EEF9B2466D4EA7
:103D4000300006F0D1F9636F50469B464B465A4609
:103D5000E35A12680D998A60C860012B00D828E7E1
:103D6000012028560AF0A4FF01990AF030FF4146CD
:103D70000AF047FF5B4682465968380006F0B4F9FE
:103D8000504606F0C9F9300006F0AEF9636F0D98A1
:103D90009B465A464B465268E35A0261020050461F
:103DA0005061022B00D804E7022028560AF080FF59
:103DB00001990AF00CFF41460AF023FF5B46824658
:103DC0009968380006F090F9504606F0A5F93000E1
:103DD00006F08AF9636F0D989B465A464B469268E7
:103DE000E35A826102005046D061032B00D8E0E61E
:103DF000032028560AF05CFF01990AF0E8FE4146CC
:103E00000AF0FFFE5B46051CD968380006F06CF925
:103E1000281C06F081F9300006F066F9636F0D9AF0
:103E2000DB6855621362C4E61100334806F05CF9A2
:103E300021E72A682E4F90461968380006F054F999
:103E4000404606F069F92B4E300006F04DF9636FDD
:103E50000D991A688A600A004146D1605A46012AC3
:103E600000D1A6E66A6859689046380006F03CF929
:103E7000404606F051F9300006F036F9636F0D99AF
:103E80005A680A610A00414651615A46022A00D125
:103E90008FE6AA6899689046380006F025F94046F2
:103EA00006F03AF9300006F01FF9636F0D999A6831
:103EB0008A610A004146D1615A46032A00D178E658
:103EC000ED68A1E700ED02100A020000F0C3021045
:103ED00080C2021020C3021038C20210B8C2021001
:103EE00054C3021088C30210ECC20210BCC30210FB
:103EF00058C40210E0D5021024C40210F0B5DE460A
:103F000057464E464546E0B5D3B05E9C0493A4693F
:103F10005FAB1F7807928046069106F0E1F800211A
:103F2000082243A80BF00AF8A1464D4C42AE429439
:103F3000A3460DAC250032004A4BE3604A4B03CA4E
:103F400003C5A360002332AD23615E9801950096FE
:103F500022AB12AA0AA9FCF733FEAA46051E1CD002
:103F6000119B002B08D0A2680993002A00D175E0AC
:103F70002000E36809A9984700231193A368002B48
:103F800003D00322210020009847280053B0F0BC42
:103F9000BB46B246A946A046F0BD45463C23542246
:103FA000EB5CAA5C12AD9B1829000093049A5C9B01
:103FB0000698FFF7BFFC051ED2D10A9A0B9B04920C
:103FC00005935E9B9B699B689847002843D106F048
:103FD00087F8049A059B801A9941FA225D9B92000A
:103FE00018645964002309F091F95D9B010018637E
:103FF000002F2CD15D9B4046019353465E99009360
:104000000297330022AAFFF79DFD051E09D0502319
:104010005D9AD35C002B0AD14B465846DB68984723
:104020009EE706F05BF8831CF1D10500EFE74246FE
:104030003C23D35C079A22A89446069A6344DB008B
:104040009958FFF719FD0028E6D0050088E70748D2
:1040500006F04AF8CEE703256D42D8E71AF0E6FDF0
:104060000D030010D50200104D06001060C40210B0
:10407000F0B5DE46574645464E461C009246E0B532
:10408000E9B0129372AB1A78A3690D90089111925E
:1040900000215822504698460AF050FF002108227D
:1040A00059A80AF04BFFD94B58AA13935893D84BF1
:1040B000269323AB03CA03C3D64B200025930023CA
:1040C000279348AB019358AB009328AA38AB20A99B
:1040D000FCF776FD041E00D07BE1402218AB9B1854
:1040E0001B78092B03D0032B01D000F05DFC05F0F9
:1040F000F7FF00220D9B91469B690E901493299B1C
:104100000F910993002B01D100F036FC0D9D2C98E6
:104110002B6CDC682B9B9B460AF0CAFDAB6DBE493D
:104120001F69A368061C60690A9325F02FFB089B92
:10413000002800D176E11A690692002A00D1F6E043
:1041400000220B925A46109242460025079618927A
:104150001E004A46534605970895159219938023E9
:10416000069ADB0092469A4200D99A4653460A982C
:1041700001215843800005F0DFFF0490002801D1A1
:1041800000F003FC089AB3681C9252461E901D92E0
:10419000002B01D100F010FC1EAB3000F4681DAA0A
:1041A0001CA9A047069B002B00D1A8E00B9B099CF3
:1041B0009C46109B64440025FF279B46A1460C9615
:1041C00031E0C321079809060AF04AFD00283CD0D7
:1041D000059B4046002B00D0D2E10AF069FD862104
:1041E000C9050AF0F4FC0AF085FD4B461870300052
:1041F0000AF05EFD8621C9050AF0E9FC0AF07AFDA5
:104200004B46587020000AF053FD8621C9050AF07C
:10421000DEFC0AF06FFD4B46987003239C46013587
:10422000E144AA4562D9049AAB00D0580AF094FD43
:104230000400030C060A3B405846784998463E4025
:104240003C400AF00DFD0028BBD140460AF02BFD92
:10425000804630000AF027FD061C20000AF023FDEE
:10426000059B041C002B00D095E140466C490AF0E8
:10427000B4FC6B498046301C0AF0AFFC6849061C50
:10428000201C0AF0AAFC041C594640460AF0A5FC72
:104290000AF0BAFD079B011C181C98460AF09AFC0C
:1042A0000AF028FD4B4659461870301C0AF095FC60
:1042B0000AF0AAFD011C40460AF08CFC0AF01AFD27
:1042C0004B4659465870201C0AF087FC0AF09CFDAA
:1042D000011C40460AF07EFC0AF00CFD4B4698702B
:1042E00003239C460135E144AA459CD80B9A5346CA
:1042F00094465B0053449C4463460C9E0B93524689
:10430000069B04989B1A069305F01AFF8022D200A0
:104310009446089B63441A00089333699A4200D27A
:104320001DE7189B9846159B9946199B9A4605F0E0
:10433000D5FE0400831C45D005F0D2FE0E9B0F9CD9
:10434000FA22C01AA141534692009863D963002310
:1043500008F0DCFF5346D862119B002B00D0CAE264
:1043600005F0BEFE129B16909B6917919B689847BB
:10437000002800D01BE305F0B3FE169B179CFA2221
:10438000C01AA1415346920018645964002308F0F2
:10439000BDFF53461863119B129902935346019334
:1043A00048AB00930D9858AB38AAFFF7CBFB041E1F
:1043B00004D105F093FE831C00D1FBE24346139821
:1043C000DB689847099B002B03D04B46002B00D09D
:1043D0008DE2279B002B08D0259A1F93002A00D13D
:1043E000EAE2269B1FA923A8984700232793259B31
:1043F000002B03D023A9032208009847200069B0AE
:10440000F0BCBB46B246A946A046F0BD0D03001065
:10441000D50200104D06001008C002108180803BBC
:1044200000007F431B690593002B00D17FE75846AE
:10443000B3490AF015FC0023002800D027E10C93B3
:104440000B935B460693434615934B461093534696
:10445000BB46079618938023059ADB0015009A4205
:1044600000D91D000A9801216843800005F064FE10
:104470008146002800D194E20B9B1E9008981C9363
:1044800083681D95002B00D196E21EABC4681DAA5F
:104490001CA9A047059B002B00D19BE00C9A00278C
:1044A0009446099BFF266344B846AA46049337E026
:1044B0009449281C0AF091FB9249051C381C0AF00B
:1044C0008CFB9049071C201C0AF087FB041C8E49BA
:1044D000281C0AF096FB8D49051C381C0AF091FB3C
:1044E000011C281C0AF076FB8949051C201C0AF0D7
:1044F00088FB011C281C0AF06DFB06990AF06DFB75
:104500000AF082FC011C07980AF064FB0AF0F2FB37
:104510004246049B985401239C46E044D04553D224
:1045200043464A469B00D0580AF016FC0400000C93
:1045300030400AF0B8FB051C200A30400AF0B3FBFB
:10454000071C200030400AF0AEFB5B46041C002B29
:10455000AED0022B57D0042BB9D18621281CC90517
:104560000AF035FB8621051CC905381C0AF02FFB13
:104570008621071CC905201C0AF029FB041CA6E79C
:104580000AF091FB804630000AF08DFB061C2000EB
:104590000AF089FB041C059B022B56D0042B00D08B
:1045A00072E686214046C9050AF011FB8621804645
:1045B000C905301C0AF00BFB8621061CC905201C0E
:1045C0000AF005FB041C5FE60C9B55469C46D44450
:1045D00063460C93059B48465B1B059305F0B0FDB5
:1045E0008022D20094460B9B63441A000B93089BD5
:1045F0001B699A4200D22EE7159B9846109B99465C
:10460000189B9A4693E63F49281C0AF0E6FA41496E
:104610000AF0DDFA40490AF0E0FA3A49051C381C74
:104620000AF0DBFA3D490AF0D2FA3D490AF0D5FA20
:104630003449071C201C0AF0D0FA3A490AF0C7FA9C
:1046400039490AF0CAFA041C41E740462D490AF0EC
:10465000C4FA30490AF0BBFA2F490AF0BEFA2949D8
:104660008046301C0AF0B9FA2C490AF0B0FA2C49FD
:104670000AF0B3FA2349061C201C0AF0AEFA2949B5
:104680000AF0A5FA28490AF0A8FA041CFCE50B93E5
:10469000434610934B4600250C935346AB46049675
:1046A000069715938023059ADB0014009A4200D9DF
:1046B0001C000A9801216043800005F03DFD071EA3
:1046C00000D16BE15B461E9008981C9383681D9493
:1046D000002B00D170E11EABC5681DAA1CA9A8471C
:1046E000059B002B00D1A8E00B9A00259446099B5E
:1046F000A2466344FF26B9462C00079364E0C046F7
:104700008180803B00007F438716993EA245163F7B
:10471000D578E93DEC51F83EFA7E6A3ED578E93E1F
:104720004260653E3BDFCF3E6666663E069B002BE1
:1047300000D1BAE040460AF0B6FA804638000AF0E6
:10474000B2FA071C28000AF0AEFA051C069B022BE1
:1047500000D188E0042B11D186214046C9050AF01A
:1047600036FA86218046C905381C0AF030FA8621BF
:10477000071CC905281C0AF02AFA051C8F49381C99
:104780000AF03FFA8E49071C40460AF03AFA011C2B
:10479000381C0AF01FFA8B49071C281C0AF031FA52
:1047A000011C381C0AF016FA87490AF016FA0AF0BA
:1047B0002BFB011C04980AF00DFA0AF09BFA079BE8
:1047C00018550134544531D24A46A300D0580AF056
:1047D000C3FAC3210500030C070A334004980906F5
:1047E0009846374035400AF03BFA00289ED14046B3
:1047F0000AF059FA804638000AF055FA071C2800DA
:104800000AF051FA069B051C002B9FD140466F49C8
:104810000AF0E3F96D498046381C0AF0DEF96B496D
:10482000071C281C0AF0D9F9051CA7E70B9B4F466B
:104830009C46D444634654460B93059B38001B1B8F
:10484000059305F07DFC8023DB009C46089BE34438
:104850001B695B4500D925E7109B98460C9B994640
:10486000159B9A4663E5404658490AF0B6F95849FF
:104870000AF0ADF957490AF0B0F954498046381C9E
:104880000AF0ABF954490AF0A2F954490AF0A5F923
:104890004E49071C281C0AF0A0F951490AF097F963
:1048A00050490AF09AF9051C68E742464E484F4BBA
:1048B00078435343C0182B015B1B1B015B195A0142
:1048C000D31AC01800140AF0F3F98621C9050AF0BA
:1048D0007EF90AF00FFA7F2803DD7F20079B185529
:1048E0006FE703008033F9DA80204042F6E7099849
:1048F00005F026FC6DE53E4B0100180005F0F4FBC9
:10490000149B002B16D01D00099B3A4E9C461C00A0
:10491000654400202C9B20560134C01A0AF0C8F9C7
:104920002B990AF06EF905F0F7FB300005F0DCFB7F
:10493000AC42EED1304805F0D7FB05F0D1FB129B1D
:104940001A909B691B919B68984700282FD105F00E
:10495000C7FB1A9B1B9CFA22C01AA1415346920026
:1049600018645964002308F0D1FC53460100186311
:10497000224805F0B9FB0EE50121149805F0DCFB97
:10498000012309909946FFF7C1FB159B9946052421
:104990001B481C4905F0A8FB644213E50C9B994693
:1049A000F5E7109B9946F2E70924644211E50324D8
:1049B000644203E5040001E51AF038F9A245163F08
:1049C0008716993ED578E93D8180803B00007F4382
:1049D000EC51F83EFA7E6A3ED578E93E4260653E8B
:1049E0003BDFCF3E6666663E459600008B4C00007E
:1049F000A8C40210E4DE0210E0D5021060C4021068
:104A000080C4021016FCFFFFF0B557464E464546DF
:104A1000DE46E0B5D24BA9B0DC6806000D001700F9
:104A20009A4605900C911392002C00D1B0E2002917
:104A300000D1ADE2002800D1AAE2A36D9968D86840
:104A40006423E25C0E2A2ED8C64BD340DB072AD55E
:104A50007123E35C002B26D1C34B994223D1037D04
:104A6000002B20D03C23E35C012B1CD1226CBF4BDC
:104A700092689A4217D15822002128000AF05EFA63
:104A8000A36D2000DB682A0031000097FFF7F0FAE1
:104A9000041E00D156E1200029B0F0BCBB46B2464E
:104AA000A946A046F0BD582200210C980AF046FA0B
:104AB000534654213C22DB689A5C5B5CD518EC00C1
:104AC000200016950AF04AFA2200002110900AF000
:104AD00035FAAB1C9B00180012930AF03FFA04232E
:104AE0000360030008331E0011904560002D05D0BF
:104AF000169B002130009A000AF020FA05F0F0FA27
:104B000053463C22DB68149015919A5C002A00D130
:104B100052E1109AB3469146002290460692944A7A
:104B200017960E92934A4E460F92934AC1460D92A3
:104B300036E00D9B1B78002B00D1B2E04B469D0068
:104B400053465C6864192068002800D1BCE00C99C9
:104B50000368326801915146C968896B00915C68AD
:104B60000499099BA047002800D096E105F0B6FA09
:104B7000BB69821C00D199E1002B03D022A903223A
:104B800008009847012304229C465346E14494467A
:104B9000DB6838329A5CE3440836914500D30AE179
:104BA0004A46520194461B6C0B9263441A685F6834
:104BB00004929A685D690A92DA68102009921A696B
:104BC000DB69079208930AF0C5F901210400B800D7
:104BD00005F0B2FA0123237363605B461B68206013
:104BE00098465B461C604346A760002B0BD01868B4
:104BF000002803D01B7B002B00D09DE040461021F5
:104C00000AF0B8F92068002800D117E1049B34604D
:104C10007360069B9C465346BC446246DB68069222
:104C200098469B699A4200D92CE1079A059B1F92EE
:104C300042460021219222A80C221E9320950AF0C0
:104C40007DF9002342462593116A059B1EAF04930C
:104C50008D421AD0186908F033FB45430822002121
:104C60001BA83D620AF06AF908221AA918A81A9727
:104C70000AF06AF9082218A922A80AF065F90E9B21
:104C800024930F9B259322AB0493089B002B00D009
:104C90004FE7434621009B6B099A04980A9CA04762
:104CA00061E73649364805F01FFA364805F01CFA28
:104CB00001230D9A13704B469D0053465C6864199E
:104CC0002068002800D042E70B991A688C46136CC4
:104CD000916B6344D868DB69984753465B682060F2
:104CE0005859002800D032E70B24179E6442BB6954
:104CF000002B03D022A9032208009847129B119D84
:104D00009C466544AE420FD0043D2F68002FF9D079
:104D10003868002802D03B7B002B10D110213800CE
:104D20000AF028F9AE42EFD1119812990AF026F94B
:104D300010980AF01BF9AEE605F002FA5EE705F0FE
:104D4000FFF9EBE75346DF680026FB6D0025002BDB
:104D500000D1A0E60C9B3C0081469846574619E0DE
:104D6000C8440020A4480000FD3E001001040010CB
:104D7000B9060010450300104545002084C002100C
:104D80008CC0021020C50210E36D013518369D421B
:104D900000D38EE03B69002B01D0AA00D358216ECE
:104DA000380089194A69C9688A464146D0470028AF
:104DB000EAD004006FE6179E05F092F9149B159C4B
:104DC000FA22C01AA1410C9C0023A063E163920067
:104DD00008F09CFA139B0100E062002B00D0A2E0D7
:104DE0005346D86854235422C35C0025502790466C
:104DF000002B64D0139BB34699460C9C06E05346A7
:104E0000D8684346C35C01359D4257D2826D6B0121
:104E1000D218D368117E96689C4653691279E25580
:104E20004A46039262460091029210992A00019428
:104E3000B0470028E3D05E4604005FE74946594882
:104E4000179E05F051F9129B119D9C4665442C005C
:104E5000082B00D19FE0043C2768002F09D0386858
:104E6000002802D03B7B002B25D1102138000AF00E
:104E700081F8A642EFD10824129911980AF07EF821
:104E800064423FE74848179E05F02EF9129B05241F
:104E90009C46119D6442654434E70524434B010060
:104EA0001800179E644205F01FF920E70400179EC2
:104EB0001DE74C46EFE505F043F9D6E75E4605F001
:104EC0000DF9129B119D9C4604006544831C00D182
:104ED00018E75346DB689946DB6D002B56D000235C
:104EE0000C9A1C0090464B465246B146AA460027F3
:104EF00015001E0004E0F36D013718349F4243D2C1
:104F00002B69002B01D0BA00D358316E2800091943
:104F10004A69C9688B464146D8470028EBD04E46BF
:104F200055460400EEE6224805F0DEF800239846D8
:104F3000169B109D002B23D01E4FB3464646984625
:104F40003B001D4A994617002B68002B13D09A6826
:104F50000024002A0CD01B68A200D05805F0DCF811
:104F6000380005F0C1F82B6801349A689442F2D3F6
:104F7000484605F0B9F801360835B045E4D15E463B
:104F80000E4805F0B1F82BE74E4655460024B9E629
:104F9000162464427FE508240821119809F0EEFFE9
:104FA0006442C1E6BCC40210F4C4021080C4021002
:104FB000A8C40210E0D50210E4DE02108CC5021075
:104FC000F0B5DE46574645464E46E0B587B00EF092
:104FD00045FB1F211A2006F0E1FE002200211A20C5
:104FE00006F0F6FE00211A2006F006FF1F211B2006
:104FF00006F0D4FE002200211B2006F0E9FE00216D
:105000001B2006F0F9FE1F211C2006F0C7FE00221F
:1050100000211C2006F0DCFE00211C2006F0ECFE26
:10502000334B80259A4600239946324B324C0593E8
:10503000E023DB019846314B314F9B466D004246E1
:10504000236813405A46136004233B6023682B42B5
:10505000FCD08022636852011B019BB2039323683A
:105060005340424613405A46136004233B60236872
:105070002B42FCD0636822681B019BB204938023FF
:105080009B015340424613405A46136004233B6041
:1050900023682B42FCD0039809F005FE534666684E
:1050A0001860049809F0FFFD51463601B6B2486019
:1050B000300009F0F8FD5146049B8860039A494688
:1050C000059800960BF0EAFE642007F093FC01239C
:1050D0009C460B33E1449C464B46E244142BAED134
:1050E00007B0F0BCBB46B246A946A046F0BDC046DC
:1050F000D03F0020A0C5021000C0044000D00440F2
:1051000000E00440F0B5DE4657464E464546E0B561
:105110003C26A1B00BF0F0FD2A480BF03BFE2A4BD9
:105120002A4F9A462A4B04AC99462A4B98462A4B5A
:105130009B462A4B019350460BF02CFEFFF740FF95
:10514000082200210BA8266109F0F8FE4B46082230
:105150000AA902A80A9309F0F7FE082202A9200072
:1051600009F0F2FE4346582200210AA80693079749
:1051700009F0E4FE0AA900222000FFF745FC050023
:10518000010058460BF08AFE002D0BD0FA2040009B
:1051900007F030FCA368002BCDD0032221002000B3
:1051A0009847C8E70AADE86809F0DCFD0B0002008B
:1051B000A96801980BF072FE083510ABAB42F2D132
:1051C000E4E7C046BCC50210E0C502102903001088
:1051D000D03F002095060010F8C5021018C6021036
:1051E000F8B54546DE4657464E460C00E0B505008C
:1051F00000290FD043689846424683689B1A9B104B
:1052000099420DD8A4008A0040460021444409F088
:1052100095FE6C60F0BCBB46B246A946A046F8BD00
:1052200003689A46434652469B1A9B469B109946F2
:105230004A46194B9B1A8B422BD30F00494500D28B
:105240004F4680234F449B059F4200D3124FBF001F
:10525000380004F06DFF8344060000215846A20088
:1052600009F06CFEC24506D058463300524602CAC9
:1052700002C38342FBD15346002B02D0504604F0B8
:105280005FFF4C44A40034192E60F6196C60AE60C8
:10529000C0E7024819F096FCFFFFFF1F24C602106A
:1052A00084B070B50C9C06920793626823680591E0
:1052B0000D9D0490D11A0C292ED9102903D9103331
:1052C0009A4200D063606A682B68D11A0C291BD9F6
:1052D000102904D9190010318A4200D0696022686F
:1052E000079911600B991960069951600A995960E4
:1052F00005999160099999600499D160089ADA60DA
:1053000070BC08BC04B0184704238910591A28003F
:10531000FFF766FF2B68E2E7042389102000591A83
:10532000FFF75EFFCFE7C04684B070B5109C0692D1
:105330000793626823680591119D0490D11A14297E
:1053400036D9182903D918339A4200D063606A68A5
:105350002B68D11A142923D9182904D91900183116
:105360008A4200D069602268099911600F9919601A
:10537000089951600E995960079991600D9999604B
:105380000699D1600C99D960059911610B99196141
:10539000049951610A9A5A6170BC08BC04B018475C
:1053A00006238910591A2800FFF71AFF2B68DAE73D
:1053B000062389102000591AFFF712FFC7E7C046DD
:1053C00084B070B5149C06920793626823680591B7
:1053D000159D0490D11A1C293ED9202903D92033C8
:1053E0009A4200D063606A682B68D11A1C292BD9B5
:1053F000202904D9190020318A4200D0696022682E
:105400000B991160139919600A99516012995960AA
:1054100009999160119999600899D1601099D960A2
:10542000079911610F991961069951610E99596196
:10543000059991610D9999610499D1610C9ADA618C
:1054400070BC08BC04B0184708238910591A2800FA
:10545000FFF7C6FE2B68D2E7082389102000591AEF
:10546000FFF7BEFEBFE7C04684B070B5189C05913B
:105470000692616822680793199D04908B1A242B69
:1054800046D9282B03D92832914200D0626069683E
:105490002B68CA1A242A33D9282A04D91A00283298
:1054A000914200D06A6022680D99116017991960C5
:1054B0000C995160169959600B99916015999960F2
:1054C0000A99D1601499D9600999116113991961E8
:1054D00008995161129959610799916111999961DE
:1054E0000699D1611099D961059911620F991962D4
:1054F000049951620E9A5A6270BC08BC04B01847F5
:105500000A2192102800891AFFF76AFE2B68CAE761
:105510000A219B102000C91AFFF762FEB7E7C046B8
:1055200084B070B51C9C059106926168226807934F
:105530001D9D04908B1A2C2B4ED9302B03D9303261
:10554000914200D0626069682B68CA1A2C2A3BD944
:10555000302A04D91A003032914200D06A602268A1
:105560000F9911601B9919600E9951601A99596031
:105570000D999160199999600C99D1601899D96029
:105580000B991161179919610A995161169959611D
:1055900009999161159999610899D1611499D96115
:1055A0000799116213991962069951621299596209
:1055B00005999162119999620499D162109ADA62FF
:1055C00070BC08BC04B018470C2192102800891A3E
:1055D000FFF706FE2B68C2E70C219B102000C91ABA
:1055E000FFF7FEFDAFE7C04684B070B5209C059183
:1055F0000692616822680793219D04908B1A342BD0
:1056000056D9382B03D93832914200D0626069688C
:105610002B68CA1A342A43D9382A04D91A003832D6
:10562000914200D06A602268119911601F99196037
:10563000109951601E9959600F9991601D99996058
:105640000E99D1601C99D9600D9911611B9919614E
:105650000C9951611A9959610B9991611999996144
:105660000A99D1611899D96109991162179919623A
:105670000899516216995962079991621599996230
:105680000699D1621499D962059911631399196326
:1056900004995163129A5A6370BC08BC04B018474D
:1056A0000E2192102800891AFFF79AFD2B68BAE79D
:1056B0000E219B102000C91AFFF792FDA7E7C046F4
:1056C00084B070B5249C05910692616822680793A6
:1056D000259D04908B1A3C2B5ED9402B03D9403278
:1056E000914200D0626069682B68CA1A3C2A4BD983
:1056F000402A04D91A004032914200D06A602268E0
:105700001399116023991960129951602299596077
:1057100011999160219999601099D1602099D9606F
:105720000F9911611F9919610E9951611E99596163
:105730000D9991611D9999610C99D1611C99D9615B
:105740000B9911621B9919620A9951621A9959624F
:1057500009999162199999620899D1621899D96247
:10576000079911631799196306995163169959633B
:1057700005999163159999630499D163149ADA6331
:1057800070BC08BC04B01847102192102800891A78
:10579000FFF726FD2B68B2E710219B102000C91AE5
:1057A000FFF71EFD9FE7C04684B070B5289D0591A8
:1057B000069269682A680793299E04908B1A442BE5
:1057C0002AD9482B03D94832914200D06A607268C6
:1057D0003468131B442B17D9482B04D923004833B2
:1057E0009A4200D0736000222D6815AB186819002A
:1057F000A850986C043BA05004A804328842F5D10C
:1058000070BC08BC04B0184712219B103000C91AA4
:10581000FFF7E6FC3468E6E712219B102800C91A5E
:10582000FFF7DEFCD3E7C04684B070B52C9D059130
:10583000069269682A6807932D9E04908B1A4C2B58
:105840002AD9502B03D95032914200D06A60726835
:105850003468131B4C2B17D9502B04D92300503319
:105860009A4200D0736000222D6817AB18681900A7
:10587000A850186D043BA05004A804328842F5D10A
:1058800070BC08BC04B0184714219B103000C91A22
:10589000FFF7A6FC3468E6E714219B102800C91A1C
:1058A000FFF79EFCD3E7C046F0B54E464546DE46C0
:1058B0005746E0B50C00CFB0E7490500160023F0CD
:1058C00065FF002800D13BE22800E44923F05EFF99
:1058D000002800D185E12800E14923F057FF002886
:1058E00000D1B6E22800DF4923F050FF002800D1A4
:1058F000ECE22800DC4923F049FF002800D15AE2FD
:105900002800DA4923F042FF002800D185E328006F
:10591000D74923F03BFF002801D100F0EBFB280022
:10592000D44923F033FF002800D12FE32800D249C7
:1059300023F02CFF002801D100F02EFC2800CF49D5
:1059400023F024FF002801D100F07BFC2800CC4983
:1059500023F01CFF002801D100F024FD2800C949D4
:1059600023F014FF002801D100F082FD2800C64971
:1059700023F00CFF002801D100F0CCFD2800C34922
:1059800023F004FF002801D100F01DFE2800C049CB
:1059900023F0FCFE002801D100F050FE2800BD4994
:1059A00023F0F4FE002801D100F084FE2800BA495B
:1059B00023F0ECFE002801D100F098FE2800B74942
:1059C00023F0E4FE002801D100F0ACFE2800B44929
:1059D00023F0DCFE002801D100F0C4FE2800B1490C
:1059E00023F0D4FE002801D100F0AAFE2800AE4921
:1059F00023F0CCFE002801D100F0C9FE2800AB49FD
:105A000023F0C4FE002801D100F0BCFE2800A84904
:105A100023F0BCFE002801D100F0D8FE2800A549E3
:105A200023F0B4FE002801D100F0C3FE2800A249F3
:105A300023F0ACFE002801D100F0E8FF28009F49C8
:105A400023F0A4FE002801D100F0DAFF28009C49D1
:105A500023F09CFE002801D100F0A3FF2800994903
:105A600023F094FE002801D100F096FF280096490B
:105A700023F08CFE002801D100F089FF2800934913
:105A800023F084FE002801D100F07CFF280090491B
:105A900023F07CFE002801D100F06FFF28008D4923
:105AA00023F074FE002801D100F062FF28008A492B
:105AB00023F06CFE002801D100F055FF2800874933
:105AC00023F064FE002801D100F048FF280084493B
:105AD00023F05CFE002801D100F03BFF2800814943
